:08000000803102288731FD2F39
:100DFA00142F2C009B019A01272F2B302C009B00CB
:100E0A0040309A00272F55302C009B0040309A0022
:100E1A00272F7F302C009B0040309A00272F710823
:100E2A00003A0319192F272F7008013A0319FE2EC9
:100E3A00033A0319022F013A0319082F073A031933
:100E4A000E2F272F080023000C1021008C162300D8
:100E5A008C1221000C14F030F20072088F05F03069
:100E6A00F20072088D057C3020009B001C159C1432
:100E7A008730F20072089C0522008F018D018F30A5
:100E8A0021009E059E1383309D051D1480302C0081
:100E9A009C000F303D00A80021009D18552F562FA9
:100EAA00512F9D141C08F200F3017208F700730811
:100EBA00F8001B08C039F200F3017208F900730840
:100ECA00FA007808F3007708F200F235F30DF235EC
:100EDA00F30D7A08F5007908F4000630F600750D6E
:100EEA00F50CF40CF60B742F72087407FB007308E8
:100EFA00753DFC007C08803AF20084307202031DC2
:100F0A00882F00307B0203188B2F8C2FA12F7C088F
:100F1A00803AF20083307202031D952F01307B0262
:100F2A00031C982F992FA12F0430F0000030F100F4
:100F3A008631FD268731512F7C08803AF2008330B2
:100F4A007202031DAA2F01307B020318AD2FAE2FA8
:100F5A00C32F7C08803AF20082307202031DB72F39
:100F6A0002307B02031CBA2FBB2FC32F0330F000C1
:100F7A000030F1008631FD268731512F7C08803AF6
:100F8A00F20082307202031DCC2F02307B0203185A
:100F9A00CF2FD02FE52F7C08803AF20081307202E1
:100FAA00031DD92F03307B02031CDC2FDD2FE52F15
:100FBA000230F0000030F1008631FD268731512FD2
:100FCA007C08803AF20081307202031DEE2F033052
:100FDA007B020318F12FF22FFA2F0130F0000030B4
:100FEA00F1008631FD268731512F512F8031022899
:060FFA0020008731282FC2
:020000040001F9
:08000000FF3FFF3FFF3FFF3F00
:04000E00EA3FFB1EAC
:00000001FF
