:08000000803102288731FD2F39
:100D840023000C1021000C14F030F00070088F05C3
:100D9400F030F00070088D057C3020009B001C159D
:100DA4009C148730F00070089C0522008F018D018F
:100DB4008F3021009E059E1383309D051D14210054
:100DC4009D18E52EE62EE12E9D141C08F000F1017D
:100DD4007008F5007108F6001B08C039F000F10135
:100DE4007008F7007108F8007608F1007508F00043
:100DF400F035F10DF035F10D7808F3007708F200C5
:100E04000630F400730DF30CF20CF40B042F70088D
:100E14007207F9007108733DFA007A08803AF0000D
:100E240084307002031D182F0030790203181B2F21
:100E34001C2F2E2F7A08803AF00083307002031D95
:100E4400252F80307902031C282F292F2E2F2200D2
:100E54008D018F018D15E12E7A08803AF0008330E0
:100E64007002031D372F8030790203183A2F3B2F6D
:100E74004D2F7A08803AF00083307002031D442F0E
:100E840000307902031C472F482F4D2F22008D017B
:100E94008F010D15E12E7A08803AF000833070023C
:100EA400031D562F003079020318592F5A2F6C2F27
:100EB4007A08803AF00082307002031D632F80307C
:100EC4007902031C662F672F6C2F22008D018F017E
:100ED4008D14E12E7A08803AF00082307002031DEE
:100EE400752F803079020318782F792F8B2F7A0889
:100EF400803AF00082307002031D822F00307902A4
:100F0400031C852F862F8B2F22008D018F010D143A
:100F1400E12E7A08803AF00082307002031D942F8B
:100F2400003079020318972F982FAA2F7A08803A55
:100F3400F00081307002031DA12F80307902031C60
:100F4400A42FA52FAA2F22008D018F018F15E12E2A
:100F54007A08803AF00081307002031DB32F80308C
:100F640079020318B62FB72FC92F7A08803AF000F8
:100F740081307002031DC02F00307902031CC32F7F
:100F8400C42FC92F22008D018F010F15E12E7A087D
:100F9400803AF00081307002031DD22F00307902B4
:100FA4000318D52FD62FE82F7A08803AF000803026
:100FB4007002031DDF2F80307902031CE22FE32F20
:100FC400E82F22008D018F018F14E12E7A08803AD8
:100FD400F00080307002031DF12F7F307902031876
:100FE400F42FF52FFA2F22008D018F010F14E12E1B
:0C0FF400E12E8031022820008631C22E40
:020000040001F9
:08000000FF3FFF3FFF3FFF3F00
:04000E00EA3FFB1EAC
:00000001FF
