:0400000080311A2809
:100008007E148031200091107C3070067104031D2D
:100018000E280F281428803122208031F001F101A8
:100028000130F0070030F13D7E10090080311C28B6
:10003800F001F1017E10200080315F2822000F1CA2
:10004800262827282B288D0102308F005E288F1C38
:100058002E282F2833288F0104308F005E280F1D8B
:10006800362837283B288F0108308F005E288F1DDF
:100078003E283F2843288F0101308D005E280D1C43
:10008800462847284B288D0102308D005E288D1C9C
:100098004E284F2853288D0104308D005E280D1DF1
:1000A800562857285B288D0108308D005E288D0161
:1000B80001308F000800F030F200720821008F052F
:1000C800F030F20072088D057C3020009B001C1572
:1000D8009C148730F20072089C05013022008F00C2
:1000E8008D018B170B1721009114792880311A285C
:020000040001F9
:08000000FF3FFF3FFF3FFF3F00
:04000E00EA3FFB1EAC
:00000001FF
