:08000000803102288731FD2F39
:100F5200F030F700770821008F05F030F7007708AE
:100F62008D0522008D01FF308F008731C327873125
:100F7200FF3022008D008F018731C3278731B22FC6
:100F820080310228F101F2010130F1070030F23D17
:100F92007208803AF000F5307002031DD22F303013
:100FA2007102031CD52FD62FC52FF301F401013096
:100FB200F3070030F43D7408803AF000F530700217
:100FC200031DE52F30307302031CE82FE92FD82FC1
:100FD200F501F6010130F5070030F63D7608803A5A
:100FE200F000F5307002031DF82F30307502031C3B
:0E0FF200FB2FFC2FEB2F080020008731A92FCA
:020000040001F9
:08000000FF3FFF3FFF3FFF3F00
:04000E00EA3FFB1EAC
:00000001FF
