:08000000803102288731EF2F47
:100F2A0061346C34653464340034F400F201F30142
:100F3A00B62F72087407F00070088600870101084E
:100F4A0023009A000430F1000C30F0003430890B91
:100F5A00AC2FF00BAC2FF10BAC2F0130F2070030A5
:100F6A00F33D72087407F00070088600870130307C
:100F7A000106031DC12FC22F9E2F080014303D0009
:100F8A00A60017303C00A40021000E1323000E1304
:100F9A0021008E1723008E131E121E119F15333047
:100FAA009B009C019D179E161D162030860000305E
:100FBA00870076308400003085000530F500160081
:100FCA001A00F50BE42F763087319A278731EC2FF8
:100FDA008031022895308400873085001200A000F5
:100FEA001200A1001200A2001200A3001200A40025
:060FFA0020008731C32F27
:020000040001F9
:08000000FF3FFF3FFF3FFF3F00
:04000E00EA3FFB1EAC
:00000001FF
