:08000000803102288731FD2F39
:100F7600F201F3017008720784007108733D850061
:100F8600000823009A000130F2070030F33D0030DC
:100F96007302103003197202031CD22FD32FBD2FF8
:100FA600080014303D00A60017303C00A4002100C4
:100FB6000E1323000E1321008E1723008E131E120C
:100FC6001E119F1533309B009C019D179E161D1602
:100FD6008B170B17210091160030F4008830F500AE
:100FE6007508F1007408F0008731BB278731FA2FA6
:100FF6008031022820008731D42F483465346C3480
:101006006C346F342C34203457346F3472346C346F
:0C1016006434203421340A340D340034DA
:020000040001F9
:08000000FF3FFF3FFF3FFF3F00
:04000E00EA3FFB1EAC
:00000001FF
