:040000008031B4286F
:100008007E148031200091107C3072067304031D29
:100018000E280F28AE28F201F3017108803AF60085
:1000280080307602031D1A2808307002031C1D2830
:100038001E288F2864280630F4000030F50080312F
:10004800BE2080310130F0070030F13D8F280530A7
:10005800F4000030F5008031BE20803126280430BD
:10006800F4000030F5008031BE20803126280330AE
:10007800F4000030F5008031BE208031262802309F
:10008800F4000030F5008031BE2080312628013090
:10009800F4000030F5008031BE2080312628003081
:1000A800F400F5008031BE20803126280830F400A5
:1000B8000030F5008031BE208031F001F1018F2839
:1000C8007108003A031969288F287008083A03193B
:1000D8001F28013A03192B28033A03193328013A38
:1000E80003193B28073A03194328013A03194B28F7
:1000F800033A03195328013A03195A288F2871081B
:10010800F5007008F4008031BE2080310130F0071E
:100118000030F13DAE287108003A03199428AE2842
:100128007008003A03198328013A03198328033A0F
:1001380003198328013A03198328073A03198328E6
:10014800013A03198328033A03198328013A03194A
:100158008328AE280130F2070030F33D7E100900F5
:100168008031B628F001F101F201F3017E10200080
:1001780081311629F3280F302C009B0040309A005B
:1001880015291F302C009B0040309A0015292F306C
:100198002C009B0040309A0015293F302C009B0012
:1001A80040309A0015294F302C009B0040309A00AF
:1001B80015295F302C009B0040309A0015296F30BC
:1001C8002C009B0040309A0015297F302C009B00A2
:1001D80040309A0015292C009B019A0115297508B1
:1001E800003A0319F82815297408003A0319BF289A
:1001F800013A0319C528033A0319CB28013A031910
:10020800D128073A0319D728013A0319DD28033AF8
:100218000319E328013A0319E9280F3A0319EF28CB
:100228001529080021008C1623008C12F030F700E5
:10023800770821008F05F030F70077088D057C30AE
:1002480020009B001C159C148730F70077089C053C
:100258008B170B172100911422008F018D0180301C
:100268002C009C000F303D00A8000F30A9000F3073
:10027800AA000F30AB000F3098000F3099000F30F4
:0C0288009A000F309B0047298031B428F9
:020000040001F9
:08000000FF3FFF3FFF3FFF3F00
:04000E00EA3FFB1EAC
:00000001FF
