:08000000803102288731FD2F39
:100E8A005E2F1F302C009B0040309A00712F3F309C
:100E9A002C009B0040309A00712F5F302C009B0081
:100EAA0040309A00712F7F302C009B0040309A000E
:100EBA00712F7108003A0319632F712F7008003AD5
:100ECA000319462F013A03194C2F033A0319522FDB
:100EDA00013A0319582F712F080021008C1623009C
:100EEA008C12F030F200720821008F05F030F20007
:100EFA0072088D057C3020009B001C159C148730DD
:100F0A00F20072089C0522008F018D0180302C00AE
:100F1A009C000F303D00A8000F30A9000F30AA0036
:100F2A000F30AB000F3098000F3099000F309A0045
:100F3A000F309B00F401F501F601F70120008C1A2D
:100F4A00A72FA82FA32F740875040319AD2FAF2F4D
:100F5A000130B02F0030F200F3017208F400730878
:100F6A00F50074087504031DBB2FBC2FEE2F7608FD
:100F7A007704031DC12FC22FCE2F7708F100760800
:100F8A00F0008731452787310130F6070030F73DF9
:100F9A00EE2F76037704031DD32FD42FD52FC22F1C
:100FAA00023076067704031DDB2FDC2FDD2FC22FDC
:100FBA00033076067704031DE32FE42FEE2F77081C
:100FCA00F1007608F000873145278731F601F701ED
:100FDA00EE2F0230F3008630F2009930890BF32F9E
:100FEA00F20BF32FF30BF32F0000A32F803102280B
:060FFA0020008731722F78
:020000040001F9
:08000000FF3FFF3FFF3FFF3F00
:04000E00EA3FFB1EAC
:00000001FF
