:08000000803102288731FD2F39
:100F6A00F101F2010B1DBA2FBB2FB72FFB30F00096
:100F7A0070088B050630200095000130F10700301B
:100F8A00F23D7208803AF00083307002031DCF2FC1
:100F9A00E8307102031CD22FD32FB72F0800F0308C
:100FAA00F300730821008F05F030F30073088D05F4
:100FBA00FA30F30073089505F730F30073089505C6
:100FCA00DF30F300730895050630200095002200F3
:100FDA008D01FF308F008731B5278731FF3022001E
:100FEA008D008F018731B5278731EC2F8031022898
:060FFA0020008731D42F16
:020000040001F9
:08000000FF3FFF3FFF3FFF3F00
:04000E00EA3FFB1EAC
:00000001FF
