:08000000803102288731FD2F39
:100F0800F101F2012000911C8A2F8B2F862FFD30D2
:100F1800F000700891050130F1070030F23D7208C9
:100F2800803AF00080307002031D9C2F7D307102E2
:100F3800031C9F2FA02F862F0800F030F3007308A2
:100F480021008F05F030F30073088D057C302000F8
:100F58009B001C159C148730F30073089C05220025
:100F68008F018D01F401F50122000F1487318427C8
:100F7800873122000F108F14873184278731220090
:100F88008F100F1587318427873122000F118F1595
:100F980087318427873122008F110D1487318427E8
:100FA800873122000D108D14873184278731220064
:100FB8008D100D1587318427873122000D118D156D
:100FC80087318427873122008D110130F4070030E2
:100FD800F53D7508803AF30080307302031DF62F43
:100FE80008307402031CF92FFA2FB82FB62F80315E
:080FF800022820008731A12F1F
:020000040001F9
:08000000FF3FFF3FFF3FFF3F00
:04000E00EA3FFB1EAC
:00000001FF
